{
  "contractName": "PixuraNFT",
  "abi": [
    {
      "constant": true,
      "inputs": [
        {
          "name": "_interfaceId",
          "type": "bytes4"
        }
      ],
      "name": "supportsInterface",
      "outputs": [
        {
          "name": "",
          "type": "bool"
        }
      ],
      "payable": false,
      "stateMutability": "view",
      "type": "function"
    },
    {
      "constant": true,
      "inputs": [],
      "name": "name",
      "outputs": [
        {
          "name": "",
          "type": "string"
        }
      ],
      "payable": false,
      "stateMutability": "view",
      "type": "function"
    },
    {
      "constant": true,
      "inputs": [
        {
          "name": "_tokenId",
          "type": "uint256"
        }
      ],
      "name": "getApproved",
      "outputs": [
        {
          "name": "",
          "type": "address"
        }
      ],
      "payable": false,
      "stateMutability": "view",
      "type": "function"
    },
    {
      "constant": false,
      "inputs": [
        {
          "name": "_to",
          "type": "address"
        },
        {
          "name": "_tokenId",
          "type": "uint256"
        }
      ],
      "name": "approve",
      "outputs": [],
      "payable": false,
      "stateMutability": "nonpayable",
      "type": "function"
    },
    {
      "constant": true,
      "inputs": [],
      "name": "totalSupply",
      "outputs": [
        {
          "name": "",
          "type": "uint256"
        }
      ],
      "payable": false,
      "stateMutability": "view",
      "type": "function"
    },
    {
      "constant": true,
      "inputs": [],
      "name": "InterfaceId_ERC165",
      "outputs": [
        {
          "name": "",
          "type": "bytes4"
        }
      ],
      "payable": false,
      "stateMutability": "view",
      "type": "function"
    },
    {
      "constant": false,
      "inputs": [
        {
          "name": "_from",
          "type": "address"
        },
        {
          "name": "_to",
          "type": "address"
        },
        {
          "name": "_tokenId",
          "type": "uint256"
        }
      ],
      "name": "transferFrom",
      "outputs": [],
      "payable": false,
      "stateMutability": "nonpayable",
      "type": "function"
    },
    {
      "constant": true,
      "inputs": [
        {
          "name": "_owner",
          "type": "address"
        },
        {
          "name": "_index",
          "type": "uint256"
        }
      ],
      "name": "tokenOfOwnerByIndex",
      "outputs": [
        {
          "name": "",
          "type": "uint256"
        }
      ],
      "payable": false,
      "stateMutability": "view",
      "type": "function"
    },
    {
      "constant": false,
      "inputs": [
        {
          "name": "_from",
          "type": "address"
        },
        {
          "name": "_to",
          "type": "address"
        },
        {
          "name": "_tokenId",
          "type": "uint256"
        }
      ],
      "name": "safeTransferFrom",
      "outputs": [],
      "payable": false,
      "stateMutability": "nonpayable",
      "type": "function"
    },
    {
      "constant": true,
      "inputs": [
        {
          "name": "_tokenId",
          "type": "uint256"
        }
      ],
      "name": "exists",
      "outputs": [
        {
          "name": "",
          "type": "bool"
        }
      ],
      "payable": false,
      "stateMutability": "view",
      "type": "function"
    },
    {
      "constant": true,
      "inputs": [
        {
          "name": "_index",
          "type": "uint256"
        }
      ],
      "name": "tokenByIndex",
      "outputs": [
        {
          "name": "",
          "type": "uint256"
        }
      ],
      "payable": false,
      "stateMutability": "view",
      "type": "function"
    },
    {
      "constant": true,
      "inputs": [
        {
          "name": "_tokenId",
          "type": "uint256"
        }
      ],
      "name": "ownerOf",
      "outputs": [
        {
          "name": "",
          "type": "address"
        }
      ],
      "payable": false,
      "stateMutability": "view",
      "type": "function"
    },
    {
      "constant": true,
      "inputs": [
        {
          "name": "_owner",
          "type": "address"
        }
      ],
      "name": "balanceOf",
      "outputs": [
        {
          "name": "",
          "type": "uint256"
        }
      ],
      "payable": false,
      "stateMutability": "view",
      "type": "function"
    },
    {
      "constant": false,
      "inputs": [],
      "name": "renounceOwnership",
      "outputs": [],
      "payable": false,
      "stateMutability": "nonpayable",
      "type": "function"
    },
    {
      "constant": true,
      "inputs": [],
      "name": "owner",
      "outputs": [
        {
          "name": "",
          "type": "address"
        }
      ],
      "payable": false,
      "stateMutability": "view",
      "type": "function"
    },
    {
      "constant": true,
      "inputs": [],
      "name": "symbol",
      "outputs": [
        {
          "name": "",
          "type": "string"
        }
      ],
      "payable": false,
      "stateMutability": "view",
      "type": "function"
    },
    {
      "constant": false,
      "inputs": [
        {
          "name": "_to",
          "type": "address"
        },
        {
          "name": "_approved",
          "type": "bool"
        }
      ],
      "name": "setApprovalForAll",
      "outputs": [],
      "payable": false,
      "stateMutability": "nonpayable",
      "type": "function"
    },
    {
      "constant": false,
      "inputs": [
        {
          "name": "_from",
          "type": "address"
        },
        {
          "name": "_to",
          "type": "address"
        },
        {
          "name": "_tokenId",
          "type": "uint256"
        },
        {
          "name": "_data",
          "type": "bytes"
        }
      ],
      "name": "safeTransferFrom",
      "outputs": [],
      "payable": false,
      "stateMutability": "nonpayable",
      "type": "function"
    },
    {
      "constant": true,
      "inputs": [
        {
          "name": "_tokenId",
          "type": "uint256"
        }
      ],
      "name": "tokenURI",
      "outputs": [
        {
          "name": "",
          "type": "string"
        }
      ],
      "payable": false,
      "stateMutability": "view",
      "type": "function"
    },
    {
      "constant": true,
      "inputs": [
        {
          "name": "_owner",
          "type": "address"
        },
        {
          "name": "_operator",
          "type": "address"
        }
      ],
      "name": "isApprovedForAll",
      "outputs": [
        {
          "name": "",
          "type": "bool"
        }
      ],
      "payable": false,
      "stateMutability": "view",
      "type": "function"
    },
    {
      "constant": false,
      "inputs": [
        {
          "name": "_newOwner",
          "type": "address"
        }
      ],
      "name": "transferOwnership",
      "outputs": [],
      "payable": false,
      "stateMutability": "nonpayable",
      "type": "function"
    },
    {
      "inputs": [
        {
          "name": "_name",
          "type": "string"
        },
        {
          "name": "_symbol",
          "type": "string"
        }
      ],
      "payable": false,
      "stateMutability": "nonpayable",
      "type": "constructor"
    },
    {
      "anonymous": false,
      "inputs": [
        {
          "indexed": true,
          "name": "_tokenId",
          "type": "uint256"
        },
        {
          "indexed": true,
          "name": "_owner",
          "type": "address"
        },
        {
          "indexed": false,
          "name": "_uri",
          "type": "string"
        }
      ],
      "name": "TokenOwnerURISet",
      "type": "event"
    },
    {
      "anonymous": false,
      "inputs": [
        {
          "indexed": true,
          "name": "previousOwner",
          "type": "address"
        }
      ],
      "name": "OwnershipRenounced",
      "type": "event"
    },
    {
      "anonymous": false,
      "inputs": [
        {
          "indexed": true,
          "name": "previousOwner",
          "type": "address"
        },
        {
          "indexed": true,
          "name": "newOwner",
          "type": "address"
        }
      ],
      "name": "OwnershipTransferred",
      "type": "event"
    },
    {
      "anonymous": false,
      "inputs": [
        {
          "indexed": true,
          "name": "_from",
          "type": "address"
        },
        {
          "indexed": true,
          "name": "_to",
          "type": "address"
        },
        {
          "indexed": true,
          "name": "_tokenId",
          "type": "uint256"
        }
      ],
      "name": "Transfer",
      "type": "event"
    },
    {
      "anonymous": false,
      "inputs": [
        {
          "indexed": true,
          "name": "_owner",
          "type": "address"
        },
        {
          "indexed": true,
          "name": "_approved",
          "type": "address"
        },
        {
          "indexed": true,
          "name": "_tokenId",
          "type": "uint256"
        }
      ],
      "name": "Approval",
      "type": "event"
    },
    {
      "anonymous": false,
      "inputs": [
        {
          "indexed": true,
          "name": "_owner",
          "type": "address"
        },
        {
          "indexed": true,
          "name": "_operator",
          "type": "address"
        },
        {
          "indexed": false,
          "name": "_approved",
          "type": "bool"
        }
      ],
      "name": "ApprovalForAll",
      "type": "event"
    },
    {
      "constant": false,
      "inputs": [
        {
          "name": "_uri",
          "type": "string"
        }
      ],
      "name": "addNewToken",
      "outputs": [],
      "payable": false,
      "stateMutability": "nonpayable",
      "type": "function"
    },
    {
      "constant": false,
      "inputs": [
        {
          "name": "_tokenId",
          "type": "uint256"
        }
      ],
      "name": "deleteToken",
      "outputs": [],
      "payable": false,
      "stateMutability": "nonpayable",
      "type": "function"
    },
    {
      "constant": false,
      "inputs": [
        {
          "name": "_tokenId",
          "type": "uint256"
        },
        {
          "name": "_uri",
          "type": "string"
        }
      ],
      "name": "updateTokenMetadata",
      "outputs": [],
      "payable": false,
      "stateMutability": "nonpayable",
      "type": "function"
    },
    {
      "constant": false,
      "inputs": [
        {
          "name": "_tokenId",
          "type": "uint256"
        },
        {
          "name": "_uri",
          "type": "string"
        }
      ],
      "name": "updateTokenOwnerMetadata",
      "outputs": [],
      "payable": false,
      "stateMutability": "nonpayable",
      "type": "function"
    },
    {
      "constant": true,
      "inputs": [
        {
          "name": "_tokenId",
          "type": "uint256"
        }
      ],
      "name": "tokenCreator",
      "outputs": [
        {
          "name": "",
          "type": "address"
        }
      ],
      "payable": false,
      "stateMutability": "view",
      "type": "function"
    },
    {
      "constant": true,
      "inputs": [
        {
          "name": "_tokenId",
          "type": "uint256"
        }
      ],
      "name": "tokenOwnerURI",
      "outputs": [
        {
          "name": "",
          "type": "string"
        }
      ],
      "payable": false,
      "stateMutability": "view",
      "type": "function"
    }
  ],
  "bytecode": "0x60806040526000600f553480156200001657600080fd5b50604051620019f3380380620019f38339810160405280516020820151908201910181816200006e7f01ffc9a70000000000000000000000000000000000000000000000000000000064010000000062000187810204565b620000a27f80ac58cd0000000000000000000000000000000000000000000000000000000064010000000062000187810204565b620000d67f4f558e790000000000000000000000000000000000000000000000000000000064010000000062000187810204565b8151620000eb906005906020850190620001f4565b50805162000101906006906020840190620001f4565b50620001367f780e9d630000000000000000000000000000000000000000000000000000000064010000000062000187810204565b6200016a7f5b5e139f0000000000000000000000000000000000000000000000000000000064010000000062000187810204565b5050600c8054600160a060020a0319163317905550620002999050565b7fffffffff000000000000000000000000000000000000000000000000000000008082161415620001b757600080fd5b7fffffffff00000000000000000000000000000000000000000000000000000000166000908152602081905260409020805460ff19166001179055565b828054600181600116156101000203166002900490600052602060002090601f016020900481019282601f106200023757805160ff191683800117855562000267565b8280016001018555821562000267579182015b82811115620002675782518255916020019190600101906200024a565b506200027592915062000279565b5090565b6200029691905b8082111562000275576000815560010162000280565b90565b61174a80620002a96000396000f30060806040526004361061015e5763ffffffff7c010000000000000000000000000000000000000000000000000000000060003504166301ffc9a7811461016357806306fdde0314610199578063081812fc14610223578063095ea7b31461025757806318160ddd1461027d57806319fa8f50146102a457806323b872dd146102d65780632cb2f52e146103005780632f745c591461035e57806340c1a0641461038257806342842e0e1461039a5780634f558e79146103c45780634f6ccce7146103dc5780635b248ca2146103f45780636297c16c146104525780636352211e1461046a57806370a0823114610482578063715018a6146104a3578063896c7723146104b85780638da5cb5b146104d057806395d89b41146104e5578063a22cb465146104fa578063b88d4fde14610520578063c87b56dd1461058f578063d9856c21146105a7578063e985e9c514610600578063f2fde38b14610627575b600080fd5b34801561016f57600080fd5b50610185600160e060020a031960043516610648565b604080519115158252519081900360200190f35b3480156101a557600080fd5b506101ae610667565b6040805160208082528351818301528351919283929083019185019080838360005b838110156101e85781810151838201526020016101d0565b50505050905090810190601f1680156102155780820380516001836020036101000a031916815260200191505b509250505060405180910390f35b34801561022f57600080fd5b5061023b6004356106fe565b60408051600160a060020a039092168252519081900360200190f35b34801561026357600080fd5b5061027b600160a060020a0360043516602435610719565b005b34801561028957600080fd5b506102926107c2565b60408051918252519081900360200190f35b3480156102b057600080fd5b506102b96107c8565b60408051600160e060020a03199092168252519081900360200190f35b3480156102e257600080fd5b5061027b600160a060020a03600435811690602435166044356107ec565b34801561030c57600080fd5b5060408051602060046024803582810135601f810185900485028601850190965285855261027b95833595369560449491939091019190819084018382808284375094975061088f9650505050505050565b34801561036a57600080fd5b50610292600160a060020a03600435166024356108e7565b34801561038e57600080fd5b5061023b600435610934565b3480156103a657600080fd5b5061027b600160a060020a036004358116906024351660443561094f565b3480156103d057600080fd5b50610185600435610970565b3480156103e857600080fd5b5061029260043561098d565b34801561040057600080fd5b5060408051602060046024803582810135601f810185900485028601850190965285855261027b9583359536956044949193909101919081908401838280828437509497506109c29650505050505050565b34801561045e57600080fd5b5061027b600435610ac3565b34801561047657600080fd5b5061023b600435610b2e565b34801561048e57600080fd5b50610292600160a060020a0360043516610b58565b3480156104af57600080fd5b5061027b610b8b565b3480156104c457600080fd5b506101ae600435610bec565b3480156104dc57600080fd5b5061023b610c8d565b3480156104f157600080fd5b506101ae610c9c565b34801561050657600080fd5b5061027b600160a060020a03600435166024351515610cfd565b34801561052c57600080fd5b50604080516020601f60643560048181013592830184900484028501840190955281845261027b94600160a060020a038135811695602480359092169560443595369560849401918190840183828082843750949750610d819650505050505050565b34801561059b57600080fd5b506101ae600435610da9565b3480156105b357600080fd5b506040805160206004803580820135601f810184900484028501840190955284845261027b943694929360249392840191908190840183828082843750949750610e279650505050505050565b34801561060c57600080fd5b50610185600160a060020a0360043581169060243516610e35565b34801561063357600080fd5b5061027b600160a060020a0360043516610e63565b600160e060020a03191660009081526020819052604090205460ff1690565b60058054604080516020601f60026000196101006001881615020190951694909404938401819004810282018101909252828152606093909290918301828280156106f35780601f106106c8576101008083540402835291602001916106f3565b820191906000526020600020905b8154815290600101906020018083116106d657829003601f168201915b505050505090505b90565b600090815260026020526040902054600160a060020a031690565b600061072482610b2e565b9050600160a060020a03838116908216141561073f57600080fd5b33600160a060020a038216148061075b575061075b8133610e35565b151561076657600080fd5b6000828152600260205260408082208054600160a060020a031916600160a060020a0387811691821790925591518593918516917f8c5be1e5ebec7d5bd14f71427d1e84f3dd0314c0f7b2291e5b200ac8c7c3b92591a4505050565b60095490565b7f01ffc9a70000000000000000000000000000000000000000000000000000000081565b6107f63382610e86565b151561080157600080fd5b600160a060020a038316151561081657600080fd5b600160a060020a038216151561082b57600080fd5b6108358382610ee5565b61083f8382610f47565b610849828261104e565b8082600160a060020a031684600160a060020a03167fddf252ad1be2c89b69c2b068fc378daa952ba7f163c4a11628f55a4df523b3ef60405160405180910390a4505050565b81600061089b82610b2e565b9050600160a060020a03811633146108b257600080fd5b8360006108be82610934565b9050600160a060020a03811633146108d557600080fd5b6108df8686611097565b505050505050565b60006108f283610b58565b82106108fd57600080fd5b600160a060020a038316600090815260076020526040902080548390811061092157fe5b9060005260206000200154905092915050565b6000908152600d6020526040902054600160a060020a031690565b61096b8383836020604051908101604052806000815250610d81565b505050565b600090815260016020526040902054600160a060020a0316151590565b60006109976107c2565b82106109a257600080fd5b60098054839081106109b057fe5b90600052602060002001549050919050565b8160006109ce82610b2e565b9050600160a060020a03811633146109e557600080fd5b6109ee84610970565b15156109f957600080fd5b6000848152600e602090815260409091208451610a1892860190611622565b5033600160a060020a0316847f8a8b453e9bcfb39debba2c5ddcc97d3d9daf4c65ec6b5f9626c5ea6da3db4a5d856040518080602001828103825283818151815260200191508051906020019080838360005b83811015610a83578181015183820152602001610a6b565b50505050905090810190601f168015610ab05780820380516001836020036101000a031916815260200191505b509250505060405180910390a350505050565b806000610acf82610b2e565b9050600160a060020a0381163314610ae657600080fd5b6000838152600e60205260409020546002600019610100600184161502019091160415610b24576000838152600e60205260408120610b24916116a0565b61096b33846110ca565b600081815260016020526040812054600160a060020a0316801515610b5257600080fd5b92915050565b6000600160a060020a0382161515610b6f57600080fd5b50600160a060020a031660009081526003602052604090205490565b600c54600160a060020a03163314610ba257600080fd5b600c54604051600160a060020a03909116907ff8df31144d9c2f0f6b59d69b8b98abd5459d07f2742c4df920b25aae33c6482090600090a2600c8054600160a060020a0319169055565b6000818152600e602090815260409182902080548351601f6002600019610100600186161502019093169290920491820184900484028101840190945280845260609392830182828015610c815780601f10610c5657610100808354040283529160200191610c81565b820191906000526020600020905b815481529060010190602001808311610c6457829003601f168201915b50505050509050919050565b600c54600160a060020a031681565b60068054604080516020601f60026000196101006001881615020190951694909404938401819004810282018101909252828152606093909290918301828280156106f35780601f106106c8576101008083540402835291602001916106f3565b600160a060020a038216331415610d1357600080fd5b336000818152600460209081526040808320600160a060020a03871680855290835292819020805460ff1916861515908117909155815190815290519293927f17307eab39ab6107e8899845ad3d59bd9653f200f220920489ca2b5937696c31929181900390910190a35050565b610d8c8484846107ec565b610d98848484846111c4565b1515610da357600080fd5b50505050565b6060610db482610970565b1515610dbf57600080fd5b6000828152600b602090815260409182902080548351601f600260001961010060018616150201909316929092049182018490048402810184019094528084529091830182828015610c815780601f10610c5657610100808354040283529160200191610c81565b610e318133611331565b5050565b600160a060020a03918216600090815260046020908152604080832093909416825291909152205460ff1690565b600c54600160a060020a03163314610e7a57600080fd5b610e8381611384565b50565b600080610e9283610b2e565b905080600160a060020a031684600160a060020a03161480610ecd575083600160a060020a0316610ec2846106fe565b600160a060020a0316145b80610edd5750610edd8185610e35565b949350505050565b81600160a060020a0316610ef882610b2e565b600160a060020a031614610f0b57600080fd5b600081815260026020526040902054600160a060020a031615610e315760009081526002602052604090208054600160a060020a031916905550565b6000806000610f5685856113f5565b600084815260086020908152604080832054600160a060020a0389168452600790925290912054909350610f9190600163ffffffff61147e16565b600160a060020a038616600090815260076020526040902080549193509083908110610fb957fe5b90600052602060002001549050806007600087600160a060020a0316600160a060020a0316815260200190815260200160002084815481101515610ff957fe5b6000918252602080832090910192909255600160a060020a03871681526007909152604090208054906110309060001983016116e4565b50600093845260086020526040808520859055908452909220555050565b600061105a8383611490565b50600160a060020a039091166000908152600760209081526040808320805460018101825590845282842081018590559383526008909152902055565b6110a082610970565b15156110ab57600080fd5b6000828152600b60209081526040909120825161096b92840190611622565b60008060006110d98585611513565b6000848152600b60205260409020546002600019610100600184161502019091160415611117576000848152600b60205260408120611117916116a0565b6000848152600a602052604090205460095490935061113d90600163ffffffff61147e16565b915060098281548110151561114e57fe5b906000526020600020015490508060098481548110151561116b57fe5b6000918252602082200191909155600980548490811061118757fe5b60009182526020909120015560098054906111a69060001983016116e4565b506000938452600a6020526040808520859055908452909220555050565b6000806111d985600160a060020a0316611563565b15156111e85760019150611328565b6040517f150b7a020000000000000000000000000000000000000000000000000000000081523360048201818152600160a060020a03898116602485015260448401889052608060648501908152875160848601528751918a169463150b7a0294938c938b938b93909160a490910190602085019080838360005b8381101561127b578181015183820152602001611263565b50505050905090810190601f1680156112a85780820380516001836020036101000a031916815260200191505b5095505050505050602060405180830381600087803b1580156112ca57600080fd5b505af11580156112de573d6000803e3d6000fd5b505050506040513d60208110156112f457600080fd5b5051600160e060020a031981167f150b7a020000000000000000000000000000000000000000000000000000000014925090505b50949350505050565b600f805460018101909155600090611349838261156b565b6113538185611097565b6000818152600d602052604090208054600160a060020a038516600160a060020a0319909116179055905092915050565b600160a060020a038116151561139957600080fd5b600c54604051600160a060020a038084169216907f8be0079c531659141344cd1fd0a4f28419497f9722a3daafe3b4186f6b6457e090600090a3600c8054600160a060020a031916600160a060020a0392909216919091179055565b81600160a060020a031661140882610b2e565b600160a060020a03161461141b57600080fd5b600160a060020a03821660009081526003602052604090205461144590600163ffffffff61147e16565b600160a060020a039092166000908152600360209081526040808320949094559181526001909152208054600160a060020a0319169055565b60008282111561148a57fe5b50900390565b600081815260016020526040902054600160a060020a0316156114b257600080fd5b60008181526001602081815260408084208054600160a060020a031916600160a060020a03881690811790915584526003909152909120546114f3916115ba565b600160a060020a0390921660009081526003602052604090209190915550565b61151d8282610ee5565b6115278282610f47565b6040518190600090600160a060020a038516907fddf252ad1be2c89b69c2b068fc378daa952ba7f163c4a11628f55a4df523b3ef908390a45050565b6000903b1190565b61157582826115c7565b600980546000838152600a60205260408120829055600182018355919091527f6e1540171b6c0c960b71a7020d9f60077f6af931a8bbf590da0223dacf75c7af015550565b81810182811015610b5257fe5b600160a060020a03821615156115dc57600080fd5b6115e6828261104e565b6040518190600160a060020a038416906000907fddf252ad1be2c89b69c2b068fc378daa952ba7f163c4a11628f55a4df523b3ef908290a45050565b828054600181600116156101000203166002900490600052602060002090601f016020900481019282601f1061166357805160ff1916838001178555611690565b82800160010185558215611690579182015b82811115611690578251825591602001919060010190611675565b5061169c929150611704565b5090565b50805460018160011615610100020316600290046000825580601f106116c65750610e83565b601f016020900490600052602060002090810190610e839190611704565b81548183558181111561096b5760008381526020902061096b9181019083015b6106fb91905b8082111561169c576000815560010161170a5600a165627a7a7230582066391c96027c4f941c46dae339834871e1d288d581cad6f611c60abcac2b4b0f0029",
  "source": "pragma solidity ^0.4.24;\n\n\nimport '../node_modules/zeppelin-solidity/contracts/token/ERC721/ERC721Token.sol';\nimport '../node_modules/zeppelin-solidity/contracts/ownership/Ownable.sol';\nimport '../node_modules/zeppelin-solidity/contracts/math/SafeMath.sol';\nimport './ERC721Creator.sol';\n\ncontract PixuraNFT is ERC721Token, ERC721Creator, Ownable {\n    using SafeMath for uint256;\n\n    // Mapping from token ID to the creator's address\n    mapping(uint256 => address) private tokenCreators;\n\n    // Mapping from token ID to the owner metadata uri\n    mapping(uint256 => string) private tokenOwnerURIs;\n\n    // Counter for creating token IDs\n    uint256 private idCounter = 0;\n\n    event TokenOwnerURISet(\n      uint256 indexed _tokenId,\n      address indexed _owner,\n      string  _uri\n    );\n\n    constructor(string _name, string _symbol) ERC721Token(_name, _symbol) {\n    }\n\n    /**\n     * @dev Checks that the token is owned by the sender\n     * @param _tokenId uint256 ID of the token\n     */\n    modifier onlyTokenOwner(uint256 _tokenId) {\n      address owner = ownerOf(_tokenId);\n      require(owner == msg.sender);\n      _;\n    }\n\n    /**\n     * @dev Checks that the token is created by the sender\n     * @param _tokenId uint256 ID of the token\n     */\n    modifier onlyTokenCreator(uint256 _tokenId) {\n      address creator = tokenCreator(_tokenId);\n      require(creator == msg.sender);\n      _;\n    }\n\n    /**\n     * @dev Adds a new unique token to the supply\n     * @param _uri string metadata uri associated with the token\n     */\n    function addNewToken(string _uri) public {\n        createToken(_uri, msg.sender);\n    }\n\n    /**\n     * @dev Deletes the token with the provided ID\n     * @param _tokenId uint256 ID of the token\n     */\n    function deleteToken(uint256 _tokenId) public onlyTokenOwner(_tokenId) {\n      // Clear owner metadata (if any)\n      if (bytes(tokenOwnerURIs[_tokenId]).length != 0) {\n        delete tokenOwnerURIs[_tokenId];\n      }\n      _burn(msg.sender, _tokenId);\n    }\n\n    /**\n     * @dev Updates the token metadata URI ONLY if the owner is also the\n     *      creator.\n     * @param _tokenId uint256 ID of the token\n     * @param _uri string metadata URI\n     */\n    function updateTokenMetadata(uint256 _tokenId, string _uri)\n      public\n      onlyTokenOwner(_tokenId)\n      onlyTokenCreator(_tokenId)\n    {\n      _setTokenURI(_tokenId, _uri);\n    }\n\n    /**\n     * @dev Updates the token owner metadata URI.\n     * @param _tokenId uint256 ID of the token\n     * @param _uri string metadata URI\n     */\n    function updateTokenOwnerMetadata(uint256 _tokenId, string _uri)\n      public\n      onlyTokenOwner(_tokenId)\n    {\n      require(exists(_tokenId));\n      tokenOwnerURIs[_tokenId] = _uri;\n      emit TokenOwnerURISet(_tokenId, msg.sender, _uri);\n    }\n\n    /**\n    * @dev Gets the creator of the token\n    * @param _tokenId uint256 ID of the token\n    * @return address of the creator\n    */\n    function tokenCreator(uint256 _tokenId) public view returns (address) {\n        return tokenCreators[_tokenId];\n    }\n\n    /**\n     * @dev Gets the owner metadata uri of the token\n     * @param _tokenId uint256 ID of the token\n     * @return metadata uri of the owner\n     */\n    function tokenOwnerURI(uint256 _tokenId) public view returns (string) {\n      return tokenOwnerURIs[_tokenId];\n    }\n\n    /**\n     * @dev Internal function creating a new token.\n     * @param _uri string metadata uri associated with the token\n     */\n    function createToken(string _uri, address _creator) private  returns (uint256){\n      uint256 newId = idCounter;\n      idCounter++;\n      _mint(_creator, newId);\n      _setTokenURI(newId, _uri);\n      tokenCreators[newId] = _creator;\n      return newId;\n    }\n\n}\n",
  "sourcePath": "/Users/charlescrain/dev/token-platform/truffle/contracts/PixuraNFT.sol",
  "compiler": {
    "name": "solc",
    "version": "0.4.24+commit.e67f0147.Emscripten.clang"
  },
  "schemaVersion": "2.0.1",
  "updatedAt": "2018-10-25T15:06:09.864Z"
}